{
  "contractName": "Rentforcement",
  "abi": [
    {
      "inputs": [],
      "name": "orderId",
      "outputs": [
        {
          "internalType": "uint256",
          "name": "",
          "type": "uint256"
        }
      ],
      "stateMutability": "view",
      "type": "function",
      "constant": true
    },
    {
      "inputs": [
        {
          "internalType": "uint256",
          "name": "",
          "type": "uint256"
        }
      ],
      "name": "orders",
      "outputs": [
        {
          "internalType": "uint256",
          "name": "productId",
          "type": "uint256"
        },
        {
          "internalType": "uint256",
          "name": "startDate",
          "type": "uint256"
        },
        {
          "internalType": "uint256",
          "name": "endDate",
          "type": "uint256"
        },
        {
          "internalType": "uint256",
          "name": "valuePaid",
          "type": "uint256"
        },
        {
          "internalType": "uint256",
          "name": "valueInDeposit",
          "type": "uint256"
        },
        {
          "internalType": "address",
          "name": "user",
          "type": "address"
        }
      ],
      "stateMutability": "view",
      "type": "function",
      "constant": true
    },
    {
      "inputs": [],
      "name": "productId",
      "outputs": [
        {
          "internalType": "uint256",
          "name": "",
          "type": "uint256"
        }
      ],
      "stateMutability": "view",
      "type": "function",
      "constant": true
    },
    {
      "inputs": [
        {
          "internalType": "uint256",
          "name": "",
          "type": "uint256"
        }
      ],
      "name": "products",
      "outputs": [
        {
          "internalType": "uint256",
          "name": "productId",
          "type": "uint256"
        },
        {
          "internalType": "string",
          "name": "productName",
          "type": "string"
        },
        {
          "internalType": "string",
          "name": "productDesc",
          "type": "string"
        },
        {
          "internalType": "uint256",
          "name": "productPrice",
          "type": "uint256"
        },
        {
          "internalType": "string",
          "name": "productImage",
          "type": "string"
        },
        {
          "internalType": "address",
          "name": "productOwner",
          "type": "address"
        },
        {
          "internalType": "uint256",
          "name": "productPeriod",
          "type": "uint256"
        },
        {
          "internalType": "uint256",
          "name": "lastDateAvailable",
          "type": "uint256"
        },
        {
          "internalType": "bool",
          "name": "isAvailableNow",
          "type": "bool"
        }
      ],
      "stateMutability": "view",
      "type": "function",
      "constant": true
    },
    {
      "inputs": [
        {
          "internalType": "uint256",
          "name": "",
          "type": "uint256"
        }
      ],
      "name": "userAddress",
      "outputs": [
        {
          "internalType": "address",
          "name": "",
          "type": "address"
        }
      ],
      "stateMutability": "view",
      "type": "function",
      "constant": true
    },
    {
      "inputs": [],
      "name": "userId",
      "outputs": [
        {
          "internalType": "uint256",
          "name": "",
          "type": "uint256"
        }
      ],
      "stateMutability": "view",
      "type": "function",
      "constant": true
    },
    {
      "inputs": [
        {
          "internalType": "address",
          "name": "",
          "type": "address"
        }
      ],
      "name": "userProductCount",
      "outputs": [
        {
          "internalType": "uint32",
          "name": "",
          "type": "uint32"
        }
      ],
      "stateMutability": "view",
      "type": "function",
      "constant": true
    },
    {
      "inputs": [
        {
          "internalType": "address",
          "name": "",
          "type": "address"
        }
      ],
      "name": "users",
      "outputs": [
        {
          "internalType": "address",
          "name": "userAccountAddress",
          "type": "address"
        },
        {
          "internalType": "string",
          "name": "userName",
          "type": "string"
        },
        {
          "internalType": "string",
          "name": "userEmail",
          "type": "string"
        },
        {
          "internalType": "string",
          "name": "userPhone",
          "type": "string"
        },
        {
          "internalType": "string",
          "name": "userAddress",
          "type": "string"
        },
        {
          "internalType": "string",
          "name": "userCity",
          "type": "string"
        },
        {
          "internalType": "string",
          "name": "userState",
          "type": "string"
        },
        {
          "internalType": "bool",
          "name": "isValid",
          "type": "bool"
        }
      ],
      "stateMutability": "view",
      "type": "function",
      "constant": true
    },
    {
      "inputs": [
        {
          "internalType": "string",
          "name": "_userName",
          "type": "string"
        },
        {
          "internalType": "string",
          "name": "_userEmail",
          "type": "string"
        },
        {
          "internalType": "string",
          "name": "_userPhone",
          "type": "string"
        },
        {
          "internalType": "string",
          "name": "_userAddress",
          "type": "string"
        },
        {
          "internalType": "string",
          "name": "_userCity",
          "type": "string"
        },
        {
          "internalType": "string",
          "name": "_userState",
          "type": "string"
        }
      ],
      "name": "createNewUser",
      "outputs": [
        {
          "internalType": "bool",
          "name": "",
          "type": "bool"
        }
      ],
      "stateMutability": "nonpayable",
      "type": "function"
    },
    {
      "inputs": [
        {
          "internalType": "string",
          "name": "_userName",
          "type": "string"
        },
        {
          "internalType": "string",
          "name": "_userEmail",
          "type": "string"
        },
        {
          "internalType": "string",
          "name": "_userPhone",
          "type": "string"
        },
        {
          "internalType": "string",
          "name": "_userAddress",
          "type": "string"
        },
        {
          "internalType": "string",
          "name": "_userCity",
          "type": "string"
        },
        {
          "internalType": "string",
          "name": "_userState",
          "type": "string"
        }
      ],
      "name": "updateUser",
      "outputs": [
        {
          "internalType": "bool",
          "name": "",
          "type": "bool"
        }
      ],
      "stateMutability": "nonpayable",
      "type": "function"
    },
    {
      "inputs": [
        {
          "internalType": "string",
          "name": "_productName",
          "type": "string"
        },
        {
          "internalType": "string",
          "name": "_productDesc",
          "type": "string"
        },
        {
          "internalType": "uint256",
          "name": "_numberOfDays",
          "type": "uint256"
        },
        {
          "internalType": "uint256",
          "name": "_perDayPrice",
          "type": "uint256"
        },
        {
          "internalType": "string",
          "name": "_productImage",
          "type": "string"
        }
      ],
      "name": "addProductOnRent",
      "outputs": [
        {
          "internalType": "bool",
          "name": "",
          "type": "bool"
        }
      ],
      "stateMutability": "nonpayable",
      "type": "function"
    },
    {
      "inputs": [
        {
          "internalType": "uint256",
          "name": "_id",
          "type": "uint256"
        },
        {
          "internalType": "uint256",
          "name": "startDate",
          "type": "uint256"
        },
        {
          "internalType": "uint256",
          "name": "numberOfDays",
          "type": "uint256"
        }
      ],
      "name": "checkAvailability",
      "outputs": [
        {
          "internalType": "bool",
          "name": "",
          "type": "bool"
        }
      ],
      "stateMutability": "view",
      "type": "function",
      "constant": true
    },
    {
      "inputs": [
        {
          "internalType": "uint256",
          "name": "_id",
          "type": "uint256"
        },
        {
          "internalType": "uint256",
          "name": "startDate",
          "type": "uint256"
        }
      ],
      "name": "getRentIndex",
      "outputs": [
        {
          "internalType": "uint256",
          "name": "",
          "type": "uint256"
        }
      ],
      "stateMutability": "view",
      "type": "function",
      "constant": true
    },
    {
      "inputs": [
        {
          "internalType": "uint256",
          "name": "_productId",
          "type": "uint256"
        },
        {
          "internalType": "uint256",
          "name": "startDate",
          "type": "uint256"
        },
        {
          "internalType": "uint256",
          "name": "numberOfDays",
          "type": "uint256"
        }
      ],
      "name": "placeOrder",
      "outputs": [
        {
          "internalType": "bool",
          "name": "",
          "type": "bool"
        }
      ],
      "stateMutability": "payable",
      "type": "function",
      "payable": true
    },
    {
      "inputs": [],
      "name": "fetchAllProducts",
      "outputs": [
        {
          "components": [
            {
              "internalType": "uint256",
              "name": "productId",
              "type": "uint256"
            },
            {
              "internalType": "string",
              "name": "productName",
              "type": "string"
            },
            {
              "internalType": "string",
              "name": "productDesc",
              "type": "string"
            },
            {
              "internalType": "uint256",
              "name": "productPrice",
              "type": "uint256"
            },
            {
              "internalType": "string",
              "name": "productImage",
              "type": "string"
            },
            {
              "internalType": "address",
              "name": "productOwner",
              "type": "address"
            },
            {
              "internalType": "uint256",
              "name": "productPeriod",
              "type": "uint256"
            },
            {
              "internalType": "uint256",
              "name": "lastDateAvailable",
              "type": "uint256"
            },
            {
              "internalType": "bool",
              "name": "isAvailableNow",
              "type": "bool"
            },
            {
              "internalType": "bool[]",
              "name": "isNotAvailable",
              "type": "bool[]"
            }
          ],
          "internalType": "struct Rentforcement.Product[]",
          "name": "",
          "type": "tuple[]"
        }
      ],
      "stateMutability": "view",
      "type": "function",
      "constant": true
    },
    {
      "inputs": [],
      "name": "fetchMyProducts",
      "outputs": [
        {
          "components": [
            {
              "internalType": "uint256",
              "name": "productId",
              "type": "uint256"
            },
            {
              "internalType": "string",
              "name": "productName",
              "type": "string"
            },
            {
              "internalType": "string",
              "name": "productDesc",
              "type": "string"
            },
            {
              "internalType": "uint256",
              "name": "productPrice",
              "type": "uint256"
            },
            {
              "internalType": "string",
              "name": "productImage",
              "type": "string"
            },
            {
              "internalType": "address",
              "name": "productOwner",
              "type": "address"
            },
            {
              "internalType": "uint256",
              "name": "productPeriod",
              "type": "uint256"
            },
            {
              "internalType": "uint256",
              "name": "lastDateAvailable",
              "type": "uint256"
            },
            {
              "internalType": "bool",
              "name": "isAvailableNow",
              "type": "bool"
            },
            {
              "internalType": "bool[]",
              "name": "isNotAvailable",
              "type": "bool[]"
            }
          ],
          "internalType": "struct Rentforcement.Product[]",
          "name": "",
          "type": "tuple[]"
        }
      ],
      "stateMutability": "view",
      "type": "function",
      "constant": true
    },
    {
      "inputs": [],
      "name": "fetchRemainingProducts",
      "outputs": [
        {
          "components": [
            {
              "internalType": "uint256",
              "name": "productId",
              "type": "uint256"
            },
            {
              "internalType": "string",
              "name": "productName",
              "type": "string"
            },
            {
              "internalType": "string",
              "name": "productDesc",
              "type": "string"
            },
            {
              "internalType": "uint256",
              "name": "productPrice",
              "type": "uint256"
            },
            {
              "internalType": "string",
              "name": "productImage",
              "type": "string"
            },
            {
              "internalType": "address",
              "name": "productOwner",
              "type": "address"
            },
            {
              "internalType": "uint256",
              "name": "productPeriod",
              "type": "uint256"
            },
            {
              "internalType": "uint256",
              "name": "lastDateAvailable",
              "type": "uint256"
            },
            {
              "internalType": "bool",
              "name": "isAvailableNow",
              "type": "bool"
            },
            {
              "internalType": "bool[]",
              "name": "isNotAvailable",
              "type": "bool[]"
            }
          ],
          "internalType": "struct Rentforcement.Product[]",
          "name": "",
          "type": "tuple[]"
        }
      ],
      "stateMutability": "view",
      "type": "function",
      "constant": true
    },
    {
      "inputs": [
        {
          "internalType": "uint256",
          "name": "_id",
          "type": "uint256"
        }
      ],
      "name": "fetchProductFromId",
      "outputs": [
        {
          "components": [
            {
              "internalType": "uint256",
              "name": "productId",
              "type": "uint256"
            },
            {
              "internalType": "string",
              "name": "productName",
              "type": "string"
            },
            {
              "internalType": "string",
              "name": "productDesc",
              "type": "string"
            },
            {
              "internalType": "uint256",
              "name": "productPrice",
              "type": "uint256"
            },
            {
              "internalType": "string",
              "name": "productImage",
              "type": "string"
            },
            {
              "internalType": "address",
              "name": "productOwner",
              "type": "address"
            },
            {
              "internalType": "uint256",
              "name": "productPeriod",
              "type": "uint256"
            },
            {
              "internalType": "uint256",
              "name": "lastDateAvailable",
              "type": "uint256"
            },
            {
              "internalType": "bool",
              "name": "isAvailableNow",
              "type": "bool"
            },
            {
              "internalType": "bool[]",
              "name": "isNotAvailable",
              "type": "bool[]"
            }
          ],
          "internalType": "struct Rentforcement.Product",
          "name": "",
          "type": "tuple"
        }
      ],
      "stateMutability": "view",
      "type": "function",
      "constant": true
    },
    {
      "inputs": [],
      "name": "checkIfUserExists",
      "outputs": [
        {
          "internalType": "bool",
          "name": "",
          "type": "bool"
        }
      ],
      "stateMutability": "view",
      "type": "function",
      "constant": true
    },
    {
      "inputs": [],
      "name": "fetchAllUsers",
      "outputs": [
        {
          "components": [
            {
              "internalType": "address",
              "name": "userAccountAddress",
              "type": "address"
            },
            {
              "internalType": "string",
              "name": "userName",
              "type": "string"
            },
            {
              "internalType": "string",
              "name": "userEmail",
              "type": "string"
            },
            {
              "internalType": "string",
              "name": "userPhone",
              "type": "string"
            },
            {
              "internalType": "string",
              "name": "userAddress",
              "type": "string"
            },
            {
              "internalType": "string",
              "name": "userCity",
              "type": "string"
            },
            {
              "internalType": "string",
              "name": "userState",
              "type": "string"
            },
            {
              "internalType": "bool",
              "name": "isValid",
              "type": "bool"
            }
          ],
          "internalType": "struct Rentforcement.User[]",
          "name": "",
          "type": "tuple[]"
        }
      ],
      "stateMutability": "view",
      "type": "function",
      "constant": true
    },
    {
      "inputs": [],
      "name": "fetchUserProfle",
      "outputs": [
        {
          "components": [
            {
              "internalType": "address",
              "name": "userAccountAddress",
              "type": "address"
            },
            {
              "internalType": "string",
              "name": "userName",
              "type": "string"
            },
            {
              "internalType": "string",
              "name": "userEmail",
              "type": "string"
            },
            {
              "internalType": "string",
              "name": "userPhone",
              "type": "string"
            },
            {
              "internalType": "string",
              "name": "userAddress",
              "type": "string"
            },
            {
              "internalType": "string",
              "name": "userCity",
              "type": "string"
            },
            {
              "internalType": "string",
              "name": "userState",
              "type": "string"
            },
            {
              "internalType": "bool",
              "name": "isValid",
              "type": "bool"
            }
          ],
          "internalType": "struct Rentforcement.User",
          "name": "",
          "type": "tuple"
        }
      ],
      "stateMutability": "view",
      "type": "function",
      "constant": true
    },
    {
      "inputs": [
        {
          "internalType": "uint256",
          "name": "_productId",
          "type": "uint256"
        }
      ],
      "name": "fetchOwnerOfProduct",
      "outputs": [
        {
          "components": [
            {
              "internalType": "address",
              "name": "userAccountAddress",
              "type": "address"
            },
            {
              "internalType": "string",
              "name": "userName",
              "type": "string"
            },
            {
              "internalType": "string",
              "name": "userEmail",
              "type": "string"
            },
            {
              "internalType": "string",
              "name": "userPhone",
              "type": "string"
            },
            {
              "internalType": "string",
              "name": "userAddress",
              "type": "string"
            },
            {
              "internalType": "string",
              "name": "userCity",
              "type": "string"
            },
            {
              "internalType": "string",
              "name": "userState",
              "type": "string"
            },
            {
              "internalType": "bool",
              "name": "isValid",
              "type": "bool"
            }
          ],
          "internalType": "struct Rentforcement.User",
          "name": "",
          "type": "tuple"
        }
      ],
      "stateMutability": "view",
      "type": "function",
      "constant": true
    },
    {
      "inputs": [],
      "name": "getDummy",
      "outputs": [
        {
          "internalType": "uint256",
          "name": "",
          "type": "uint256"
        }
      ],
      "stateMutability": "view",
      "type": "function",
      "constant": true
    },
    {
      "inputs": [
        {
          "internalType": "uint256",
          "name": "x",
          "type": "uint256"
        }
      ],
      "name": "setDummy",
      "outputs": [],
      "stateMutability": "nonpayable",
      "type": "function"
    }
  ],
  "bytecode": "0x60806040526000805534801561001457600080fd5b50614ea8806100246000396000f3fe60806040526004361061014b5760003560e01c80639674a0ac116100b6578063cf40fc9c1161006f578063cf40fc9c14610523578063d553ab9c1461054e578063dff6fbaf14610579578063e6dfc9b6146105a4578063fa0ff39f146105e1578063ffaae07a1461060a5761014b565b80639674a0ac146103df578063a85c38ef1461041c578063a87430ba1461045e578063bbaf4498146104a2578063c3374315146104cd578063c5ce3911146104f85761014b565b80635f13451f116101085780635f13451f1461028d57806366b8e1f2146102ca5780636b3b8861146103075780637acc0b20146103445780638495ab86146103895780638e4527da146103b45761014b565b80630e97cfdf1461015057806315e064f81461018057806315f5744a146101bd578063163de5e5146101fa57806353155958146102255780635897591914610262575b600080fd5b61016a600480360381019061016591906140e1565b610647565b6040516101779190614a10565b60405180910390f35b34801561018c57600080fd5b506101a760048036038101906101a29190613fbd565b610704565b6040516101b49190614a10565b60405180910390f35b3480156101c957600080fd5b506101e460048036038101906101df9190613ea4565b6109a8565b6040516101f19190614a10565b60405180910390f35b34801561020657600080fd5b5061020f610cf3565b60405161021c9190614b2f565b60405180910390f35b34801561023157600080fd5b5061024c60048036038101906102479190613e7b565b610cf9565b6040516102599190614c4d565b60405180910390f35b34801561026e57600080fd5b50610277610d1c565b6040516102849190614b2f565b60405180910390f35b34801561029957600080fd5b506102b460048036038101906102af91906140a5565b610d22565b6040516102c19190614b2f565b60405180910390f35b3480156102d657600080fd5b506102f160048036038101906102ec919061407c565b610d77565b6040516102fe9190614b0d565b60405180910390f35b34801561031357600080fd5b5061032e60048036038101906103299190613ea4565b611244565b60405161033b9190614a10565b60405180910390f35b34801561035057600080fd5b5061036b6004803603810190610366919061407c565b61146f565b60405161038099989796959493929190614b4a565b60405180910390f35b34801561039557600080fd5b5061039e6116b2565b6040516103ab91906149cc565b60405180910390f35b3480156103c057600080fd5b506103c9611a98565b6040516103d691906149cc565b60405180910390f35b3480156103eb57600080fd5b506104066004803603810190610401919061407c565b611f15565b6040516104139190614909565b60405180910390f35b34801561042857600080fd5b50610443600480360381019061043e919061407c565b611f48565b60405161045596959493929190614bec565b60405180910390f35b34801561046a57600080fd5b5061048560048036038101906104809190613e7b565b611fa4565b604051610499989796959493929190614924565b60405180910390f35b3480156104ae57600080fd5b506104b76123a9565b6040516104c49190614b0d565b60405180910390f35b3480156104d957600080fd5b506104e261283e565b6040516104ef91906149ee565b60405180910390f35b34801561050457600080fd5b5061050d612d93565b60405161051a9190614b2f565b60405180910390f35b34801561052f57600080fd5b50610538612d99565b6040516105459190614b2f565b60405180910390f35b34801561055a57600080fd5b50610563612da2565b60405161057091906149cc565b60405180910390f35b34801561058557600080fd5b5061058e6132ae565b60405161059b9190614a10565b60405180910390f35b3480156105b057600080fd5b506105cb60048036038101906105c6919061407c565b613305565b6040516105d89190614aeb565b60405180910390f35b3480156105ed57600080fd5b506106086004803603810190610603919061407c565b61362f565b005b34801561061657600080fd5b50610631600480360381019061062c91906140e1565b613639565b60405161063e9190614a10565b60405180910390f35b60008082600660008781526020019081526020016000206003015402905060008134146106a9576040517f08c379a00000000000000000000000000000000000000000000000000000000081526004016106a090614a8b565b60405180910390fd5b6106e96006600088815260200190815260200160002060050160009054906101000a900473ffffffffffffffffffffffffffffffffffffffff16836137ba565b6106f7863384848989613805565b6001925050509392505050565b600080600080610717614d58420161398d565b925092509250600061072a8484846139ba565b9050614d588103905060006001620151808a02830103905061074a613b7e565b60405180610140016040528060015481526020018d81526020018c81526020018a81526020018981526020013373ffffffffffffffffffffffffffffffffffffffff1681526020018b81526020018381526020016001151581526020018b67ffffffffffffffff811180156107be57600080fd5b506040519080825280602002602001820160405280156107ed5781602001602082028036833780820191505090505b5081525090508060066000600154815260200190815260200160002060008201518160000155602082015181600101908051906020019061082f929190613be9565b50604082015181600201908051906020019061084c929190613be9565b50606082015181600301556080820151816004019080519060200190610873929190613be9565b5060a08201518160050160006101000a81548173ffffffffffffffffffffffffffffffffffffffff021916908373ffffffffffffffffffffffffffffffffffffffff16021790555060c0820151816006015560e082015181600701556101008201518160080160006101000a81548160ff02191690831515021790555061012082015181600901908051906020019061090d929190613c69565b509050506001600760003373ffffffffffffffffffffffffffffffffffffffff1673ffffffffffffffffffffffffffffffffffffffff16815260200190815260200160002060008282829054906101000a900463ffffffff160192506101000a81548163ffffffff021916908363ffffffff160217905550600180600082825401925050819055506001965050505050505095945050505050565b600033600560008273ffffffffffffffffffffffffffffffffffffffff1673ffffffffffffffffffffffffffffffffffffffff16815260200190815260200160002060070160009054906101000a900460ff16610a0457600080fd5b60003390508073ffffffffffffffffffffffffffffffffffffffff16600560008373ffffffffffffffffffffffffffffffffffffffff1673ffffffffffffffffffffffffffffffffffffffff16815260200190815260200160002060000160009054906101000a900473ffffffffffffffffffffffffffffffffffffffff1673ffffffffffffffffffffffffffffffffffffffff1614610ad9576040517f08c379a0000000000000000000000000000000000000000000000000000000008152600401610ad090614a4b565b60405180910390fd5b88600560003373ffffffffffffffffffffffffffffffffffffffff1673ffffffffffffffffffffffffffffffffffffffff1681526020019081526020016000206001019080519060200190610b2f929190613be9565b5087600560003373ffffffffffffffffffffffffffffffffffffffff1673ffffffffffffffffffffffffffffffffffffffff1681526020019081526020016000206002019080519060200190610b86929190613be9565b5086600560003373ffffffffffffffffffffffffffffffffffffffff1673ffffffffffffffffffffffffffffffffffffffff1681526020019081526020016000206003019080519060200190610bdd929190613be9565b5085600560003373ffffffffffffffffffffffffffffffffffffffff1673ffffffffffffffffffffffffffffffffffffffff1681526020019081526020016000206004019080519060200190610c34929190613be9565b5084600560003373ffffffffffffffffffffffffffffffffffffffff1673ffffffffffffffffffffffffffffffffffffffff1681526020019081526020016000206005019080519060200190610c8b929190613be9565b5083600560003373ffffffffffffffffffffffffffffffffffffffff1673ffffffffffffffffffffffffffffffffffffffff1681526020019081526020016000206006019080519060200190610ce2929190613be9565b506001925050509695505050505050565b60035481565b60076020528060005260406000206000915054906101000a900463ffffffff1681565b60025481565b6000806201518060066000868152602001908152602001600020600601540260016006600087815260200190815260200160002060070154010390506000610d6a82856139d5565b9050809250505092915050565b610d7f613d0f565b600560006006600085815260200190815260200160002060050160009054906101000a900473ffffffffffffffffffffffffffffffffffffffff1673ffffffffffffffffffffffffffffffffffffffff1673ffffffffffffffffffffffffffffffffffffffff168152602001908152602001600020604051806101000160405290816000820160009054906101000a900473ffffffffffffffffffffffffffffffffffffffff1673ffffffffffffffffffffffffffffffffffffffff1673ffffffffffffffffffffffffffffffffffffffff168152602001600182018054600181600116156101000203166002900480601f016020809104026020016040519081016040528092919081815260200182805460018160011615610100020316600290048015610eef5780601f10610ec457610100808354040283529160200191610eef565b820191906000526020600020905b815481529060010190602001808311610ed257829003601f168201915b50505050508152602001600282018054600181600116156101000203166002900480601f016020809104026020016040519081016040528092919081815260200182805460018160011615610100020316600290048015610f915780601f10610f6657610100808354040283529160200191610f91565b820191906000526020600020905b815481529060010190602001808311610f7457829003601f168201915b50505050508152602001600382018054600181600116156101000203166002900480601f0160208091040260200160405190810160405280929190818152602001828054600181600116156101000203166002900480156110335780601f1061100857610100808354040283529160200191611033565b820191906000526020600020905b81548152906001019060200180831161101657829003601f168201915b50505050508152602001600482018054600181600116156101000203166002900480601f0160208091040260200160405190810160405280929190818152602001828054600181600116156101000203166002900480156110d55780601f106110aa576101008083540402835291602001916110d5565b820191906000526020600020905b8154815290600101906020018083116110b857829003601f168201915b50505050508152602001600582018054600181600116156101000203166002900480601f0160208091040260200160405190810160405280929190818152602001828054600181600116156101000203166002900480156111775780601f1061114c57610100808354040283529160200191611177565b820191906000526020600020905b81548152906001019060200180831161115a57829003601f168201915b50505050508152602001600682018054600181600116156101000203166002900480601f0160208091040260200160405190810160405280929190818152602001828054600181600116156101000203166002900480156112195780601f106111ee57610100808354040283529160200191611219565b820191906000526020600020905b8154815290600101906020018083116111fc57829003601f168201915b505050505081526020016007820160009054906101000a900460ff1615151515815250509050919050565b600061124e613d0f565b6040518061010001604052803373ffffffffffffffffffffffffffffffffffffffff1681526020018981526020018881526020018781526020018681526020018581526020018481526020016001151581525090503360046000600254815260200190815260200160002060006101000a81548173ffffffffffffffffffffffffffffffffffffffff021916908373ffffffffffffffffffffffffffffffffffffffff16021790555080600560003373ffffffffffffffffffffffffffffffffffffffff1673ffffffffffffffffffffffffffffffffffffffff16815260200190815260200160002060008201518160000160006101000a81548173ffffffffffffffffffffffffffffffffffffffff021916908373ffffffffffffffffffffffffffffffffffffffff160217905550602082015181600101908051906020019061139a929190613be9565b5060408201518160020190805190602001906113b7929190613be9565b5060608201518160030190805190602001906113d4929190613be9565b5060808201518160040190805190602001906113f1929190613be9565b5060a082015181600501908051906020019061140e929190613be9565b5060c082015181600601908051906020019061142b929190613be9565b5060e08201518160070160006101000a81548160ff021916908315150217905550905050600160026000828254019250508190555060019150509695505050505050565b6006602052806000526040600020600091509050806000015490806001018054600181600116156101000203166002900480601f0160208091040260200160405190810160405280929190818152602001828054600181600116156101000203166002900480156115215780601f106114f657610100808354040283529160200191611521565b820191906000526020600020905b81548152906001019060200180831161150457829003601f168201915b505050505090806002018054600181600116156101000203166002900480601f0160208091040260200160405190810160405280929190818152602001828054600181600116156101000203166002900480156115bf5780601f10611594576101008083540402835291602001916115bf565b820191906000526020600020905b8154815290600101906020018083116115a257829003601f168201915b505050505090806003015490806004018054600181600116156101000203166002900480601f0160208091040260200160405190810160405280929190818152602001828054600181600116156101000203166002900480156116635780601f1061163857610100808354040283529160200191611663565b820191906000526020600020905b81548152906001019060200180831161164657829003601f168201915b5050505050908060050160009054906101000a900473ffffffffffffffffffffffffffffffffffffffff16908060060154908060070154908060080160009054906101000a900460ff16905089565b60608060015467ffffffffffffffff811180156116ce57600080fd5b5060405190808252806020026020018201604052801561170857816020015b6116f5613b7e565b8152602001906001900390816116ed5790505b5090506000805b600154811015611a8f57600115156006600083815260200190815260200160002060080160009054906101000a900460ff1615151415611a8257600660008281526020019081526020016000206040518061014001604052908160008201548152602001600182018054600181600116156101000203166002900480601f01602080910402602001604051908101604052809291908181526020018280546001816001161561010002031660029004801561180b5780601f106117e05761010080835404028352916020019161180b565b820191906000526020600020905b8154815290600101906020018083116117ee57829003601f168201915b50505050508152602001600282018054600181600116156101000203166002900480601f0160208091040260200160405190810160405280929190818152602001828054600181600116156101000203166002900480156118ad5780601f10611882576101008083540402835291602001916118ad565b820191906000526020600020905b81548152906001019060200180831161189057829003601f168201915b5050505050815260200160038201548152602001600482018054600181600116156101000203166002900480601f0160208091040260200160405190810160405280929190818152602001828054600181600116156101000203166002900480156119595780601f1061192e57610100808354040283529160200191611959565b820191906000526020600020905b81548152906001019060200180831161193c57829003601f168201915b505050505081526020016005820160009054906101000a900473ffffffffffffffffffffffffffffffffffffffff1673ffffffffffffffffffffffffffffffffffffffff1673ffffffffffffffffffffffffffffffffffffffff16815260200160068201548152602001600782015481526020016008820160009054906101000a900460ff1615151515815260200160098201805480602002602001604051908101604052809291908181526020018280548015611a5b57602002820191906000526020600020906000905b82829054906101000a900460ff16151581526020019060010190602082600001049283019260010382029150808411611a255790505b505050505081525050838381518110611a7057fe5b60200260200101819052506001820191505b808060010191505061170f565b50819250505090565b60606000600760003373ffffffffffffffffffffffffffffffffffffffff1673ffffffffffffffffffffffffffffffffffffffff16815260200190815260200160002060009054906101000a900463ffffffff1663ffffffff1690506060816001540367ffffffffffffffff81118015611b1157600080fd5b50604051908082528060200260200182016040528015611b4b57816020015b611b38613b7e565b815260200190600190039081611b305790505b5090506000805b600154811015611f0b573373ffffffffffffffffffffffffffffffffffffffff166006600083815260200190815260200160002060050160009054906101000a900473ffffffffffffffffffffffffffffffffffffffff1673ffffffffffffffffffffffffffffffffffffffff1614611efe57600660008281526020019081526020016000206040518061014001604052908160008201548152602001600182018054600181600116156101000203166002900480601f016020809104026020016040519081016040528092919081815260200182805460018160011615610100020316600290048015611c875780601f10611c5c57610100808354040283529160200191611c87565b820191906000526020600020905b815481529060010190602001808311611c6a57829003601f168201915b50505050508152602001600282018054600181600116156101000203166002900480601f016020809104026020016040519081016040528092919081815260200182805460018160011615610100020316600290048015611d295780601f10611cfe57610100808354040283529160200191611d29565b820191906000526020600020905b815481529060010190602001808311611d0c57829003601f168201915b5050505050815260200160038201548152602001600482018054600181600116156101000203166002900480601f016020809104026020016040519081016040528092919081815260200182805460018160011615610100020316600290048015611dd55780601f10611daa57610100808354040283529160200191611dd5565b820191906000526020600020905b815481529060010190602001808311611db857829003601f168201915b505050505081526020016005820160009054906101000a900473ffffffffffffffffffffffffffffffffffffffff1673ffffffffffffffffffffffffffffffffffffffff1673ffffffffffffffffffffffffffffffffffffffff16815260200160068201548152602001600782015481526020016008820160009054906101000a900460ff1615151515815260200160098201805480602002602001604051908101604052809291908181526020018280548015611ed757602002820191906000526020600020906000905b82829054906101000a900460ff16151581526020019060010190602082600001049283019260010382029150808411611ea15790505b505050505081525050838381518110611eec57fe5b60200260200101819052506001820191505b8080600101915050611b52565b5081935050505090565b60046020528060005260406000206000915054906101000a900473ffffffffffffffffffffffffffffffffffffffff1681565b60086020528060005260406000206000915090508060000154908060010154908060020154908060030154908060040154908060050160009054906101000a900473ffffffffffffffffffffffffffffffffffffffff16905086565b60056020528060005260406000206000915090508060000160009054906101000a900473ffffffffffffffffffffffffffffffffffffffff1690806001018054600181600116156101000203166002900480601f0160208091040260200160405190810160405280929190818152602001828054600181600116156101000203166002900480156120765780601f1061204b57610100808354040283529160200191612076565b820191906000526020600020905b81548152906001019060200180831161205957829003601f168201915b505050505090806002018054600181600116156101000203166002900480601f0160208091040260200160405190810160405280929190818152602001828054600181600116156101000203166002900480156121145780601f106120e957610100808354040283529160200191612114565b820191906000526020600020905b8154815290600101906020018083116120f757829003601f168201915b505050505090806003018054600181600116156101000203166002900480601f0160208091040260200160405190810160405280929190818152602001828054600181600116156101000203166002900480156121b25780601f10612187576101008083540402835291602001916121b2565b820191906000526020600020905b81548152906001019060200180831161219557829003601f168201915b505050505090806004018054600181600116156101000203166002900480601f0160208091040260200160405190810160405280929190818152602001828054600181600116156101000203166002900480156122505780601f1061222557610100808354040283529160200191612250565b820191906000526020600020905b81548152906001019060200180831161223357829003601f168201915b505050505090806005018054600181600116156101000203166002900480601f0160208091040260200160405190810160405280929190818152602001828054600181600116156101000203166002900480156122ee5780601f106122c3576101008083540402835291602001916122ee565b820191906000526020600020905b8154815290600101906020018083116122d157829003601f168201915b505050505090806006018054600181600116156101000203166002900480601f01602080910402602001604051908101604052809291908181526020018280546001816001161561010002031660029004801561238c5780601f106123615761010080835404028352916020019161238c565b820191906000526020600020905b81548152906001019060200180831161236f57829003601f168201915b5050505050908060070160009054906101000a900460ff16905088565b6123b1613d0f565b600560003373ffffffffffffffffffffffffffffffffffffffff1673ffffffffffffffffffffffffffffffffffffffff168152602001908152602001600020604051806101000160405290816000820160009054906101000a900473ffffffffffffffffffffffffffffffffffffffff1673ffffffffffffffffffffffffffffffffffffffff1673ffffffffffffffffffffffffffffffffffffffff168152602001600182018054600181600116156101000203166002900480601f0160208091040260200160405190810160405280929190818152602001828054600181600116156101000203166002900480156124eb5780601f106124c0576101008083540402835291602001916124eb565b820191906000526020600020905b8154815290600101906020018083116124ce57829003601f168201915b50505050508152602001600282018054600181600116156101000203166002900480601f01602080910402602001604051908101604052809291908181526020018280546001816001161561010002031660029004801561258d5780601f106125625761010080835404028352916020019161258d565b820191906000526020600020905b81548152906001019060200180831161257057829003601f168201915b50505050508152602001600382018054600181600116156101000203166002900480601f01602080910402602001604051908101604052809291908181526020018280546001816001161561010002031660029004801561262f5780601f106126045761010080835404028352916020019161262f565b820191906000526020600020905b81548152906001019060200180831161261257829003601f168201915b50505050508152602001600482018054600181600116156101000203166002900480601f0160208091040260200160405190810160405280929190818152602001828054600181600116156101000203166002900480156126d15780601f106126a6576101008083540402835291602001916126d1565b820191906000526020600020905b8154815290600101906020018083116126b457829003601f168201915b50505050508152602001600582018054600181600116156101000203166002900480601f0160208091040260200160405190810160405280929190818152602001828054600181600116156101000203166002900480156127735780601f1061274857610100808354040283529160200191612773565b820191906000526020600020905b81548152906001019060200180831161275657829003601f168201915b50505050508152602001600682018054600181600116156101000203166002900480601f0160208091040260200160405190810160405280929190818152602001828054600181600116156101000203166002900480156128155780601f106127ea57610100808354040283529160200191612815565b820191906000526020600020905b8154815290600101906020018083116127f857829003601f168201915b505050505081526020016007820160009054906101000a900460ff161515151581525050905090565b60608060025467ffffffffffffffff8111801561285a57600080fd5b5060405190808252806020026020018201604052801561289457816020015b612881613d0f565b8152602001906001900390816128795790505b5090506000805b600254811015612d8a57600560006004600084815260200190815260200160002060009054906101000a900473ffffffffffffffffffffffffffffffffffffffff1673ffffffffffffffffffffffffffffffffffffffff1673ffffffffffffffffffffffffffffffffffffffff168152602001908152602001600020604051806101000160405290816000820160009054906101000a900473ffffffffffffffffffffffffffffffffffffffff1673ffffffffffffffffffffffffffffffffffffffff1673ffffffffffffffffffffffffffffffffffffffff168152602001600182018054600181600116156101000203166002900480601f016020809104026020016040519081016040528092919081815260200182805460018160011615610100020316600290048015612a125780601f106129e757610100808354040283529160200191612a12565b820191906000526020600020905b8154815290600101906020018083116129f557829003601f168201915b50505050508152602001600282018054600181600116156101000203166002900480601f016020809104026020016040519081016040528092919081815260200182805460018160011615610100020316600290048015612ab45780601f10612a8957610100808354040283529160200191612ab4565b820191906000526020600020905b815481529060010190602001808311612a9757829003601f168201915b50505050508152602001600382018054600181600116156101000203166002900480601f016020809104026020016040519081016040528092919081815260200182805460018160011615610100020316600290048015612b565780601f10612b2b57610100808354040283529160200191612b56565b820191906000526020600020905b815481529060010190602001808311612b3957829003601f168201915b50505050508152602001600482018054600181600116156101000203166002900480601f016020809104026020016040519081016040528092919081815260200182805460018160011615610100020316600290048015612bf85780601f10612bcd57610100808354040283529160200191612bf8565b820191906000526020600020905b815481529060010190602001808311612bdb57829003601f168201915b50505050508152602001600582018054600181600116156101000203166002900480601f016020809104026020016040519081016040528092919081815260200182805460018160011615610100020316600290048015612c9a5780601f10612c6f57610100808354040283529160200191612c9a565b820191906000526020600020905b815481529060010190602001808311612c7d57829003601f168201915b50505050508152602001600682018054600181600116156101000203166002900480601f016020809104026020016040519081016040528092919081815260200182805460018160011615610100020316600290048015612d3c5780601f10612d1157610100808354040283529160200191612d3c565b820191906000526020600020905b815481529060010190602001808311612d1f57829003601f168201915b505050505081526020016007820160009054906101000a900460ff161515151581525050838381518110612d6c57fe5b6020026020010181905250600182019150808060010191505061289b565b50819250505090565b60015481565b60008054905090565b60606000600760003373ffffffffffffffffffffffffffffffffffffffff1673ffffffffffffffffffffffffffffffffffffffff16815260200190815260200160002060009054906101000a900463ffffffff1663ffffffff1611612e3c576040517f08c379a0000000000000000000000000000000000000000000000000000000008152600401612e3390614acb565b60405180910390fd5b6060600760003373ffffffffffffffffffffffffffffffffffffffff1673ffffffffffffffffffffffffffffffffffffffff16815260200190815260200160002060009054906101000a900463ffffffff1663ffffffff1667ffffffffffffffff81118015612eaa57600080fd5b50604051908082528060200260200182016040528015612ee457816020015b612ed1613b7e565b815260200190600190039081612ec95790505b5090506000805b6001548110156132a5573373ffffffffffffffffffffffffffffffffffffffff166006600083815260200190815260200160002060050160009054906101000a900473ffffffffffffffffffffffffffffffffffffffff1673ffffffffffffffffffffffffffffffffffffffff16141561329857600660008281526020019081526020016000206040518061014001604052908160008201548152602001600182018054600181600116156101000203166002900480601f0160208091040260200160405190810160405280929190818152602001828054600181600116156101000203166002900480156130215780601f10612ff657610100808354040283529160200191613021565b820191906000526020600020905b81548152906001019060200180831161300457829003601f168201915b50505050508152602001600282018054600181600116156101000203166002900480601f0160208091040260200160405190810160405280929190818152602001828054600181600116156101000203166002900480156130c35780601f10613098576101008083540402835291602001916130c3565b820191906000526020600020905b8154815290600101906020018083116130a657829003601f168201915b5050505050815260200160038201548152602001600482018054600181600116156101000203166002900480601f01602080910402602001604051908101604052809291908181526020018280546001816001161561010002031660029004801561316f5780601f106131445761010080835404028352916020019161316f565b820191906000526020600020905b81548152906001019060200180831161315257829003601f168201915b505050505081526020016005820160009054906101000a900473ffffffffffffffffffffffffffffffffffffffff1673ffffffffffffffffffffffffffffffffffffffff1673ffffffffffffffffffffffffffffffffffffffff16815260200160068201548152602001600782015481526020016008820160009054906101000a900460ff161515151581526020016009820180548060200260200160405190810160405280929190818152602001828054801561327157602002820191906000526020600020906000905b82829054906101000a900460ff1615158152602001906001019060208260000104928301926001038202915080841161323b5790505b50505050508152505083838151811061328657fe5b60200260200101819052506001820191505b8080600101915050612eeb565b50819250505090565b6000600560003373ffffffffffffffffffffffffffffffffffffffff1673ffffffffffffffffffffffffffffffffffffffff16815260200190815260200160002060070160009054906101000a900460ff16905090565b61330d613b7e565b600660008381526020019081526020016000206040518061014001604052908160008201548152602001600182018054600181600116156101000203166002900480601f0160208091040260200160405190810160405280929190818152602001828054600181600116156101000203166002900480156133cf5780601f106133a4576101008083540402835291602001916133cf565b820191906000526020600020905b8154815290600101906020018083116133b257829003601f168201915b50505050508152602001600282018054600181600116156101000203166002900480601f0160208091040260200160405190810160405280929190818152602001828054600181600116156101000203166002900480156134715780601f1061344657610100808354040283529160200191613471565b820191906000526020600020905b81548152906001019060200180831161345457829003601f168201915b5050505050815260200160038201548152602001600482018054600181600116156101000203166002900480601f01602080910402602001604051908101604052809291908181526020018280546001816001161561010002031660029004801561351d5780601f106134f25761010080835404028352916020019161351d565b820191906000526020600020905b81548152906001019060200180831161350057829003601f168201915b505050505081526020016005820160009054906101000a900473ffffffffffffffffffffffffffffffffffffffff1673ffffffffffffffffffffffffffffffffffffffff1673ffffffffffffffffffffffffffffffffffffffff16815260200160068201548152602001600782015481526020016008820160009054906101000a900460ff161515151581526020016009820180548060200260200160405190810160405280929190818152602001828054801561361f57602002820191906000526020600020906000905b82829054906101000a900460ff161515815260200190600101906020826000010492830192600103820291508084116135e95790505b5050505050815250509050919050565b8060008190555050565b60006006600085815260200190815260200160002060070154421115613694576040517f08c379a000000000000000000000000000000000000000000000000000000000815260040161368b90614a6b565b60405180910390fd5b60006201518083028401905060066000868152602001908152602001600020600701548111156136f9576040517f08c379a00000000000000000000000000000000000000000000000000000000081526004016136f090614aab565b60405180910390fd5b60006137058686610d22565b905060008190505b8482018110156137ac576001151560066000898152602001908152602001600020600901828154811061373c57fe5b90600052602060002090602091828204019190069054906101000a900460ff161515141561379f576040517f08c379a000000000000000000000000000000000000000000000000000000000815260040161379690614a2b565b60405180910390fd5b808060010191505061370d565b506001925050509392505050565b8173ffffffffffffffffffffffffffffffffffffffff166108fc829081150290604051600060405180830381858888f19350505050158015613800573d6000803e3d6000fd5b505050565b600060066000888152602001908152602001600020905060006138288885610d22565b905060008190505b83820181101561388157600183600901828154811061384b57fe5b90600052602060002090602091828204019190066101000a81548160ff0219169083151502179055508080600101915050613830565b50600060016201518085028601039050613899613d6c565b6040518060c001604052808b81526020018781526020018381526020018981526020018881526020018a73ffffffffffffffffffffffffffffffffffffffff16815250905080600860006003548152602001908152602001600020600082015181600001556020820151816001015560408201518160020155606082015181600301556080820151816004015560a08201518160050160006101000a81548173ffffffffffffffffffffffffffffffffffffffff021916908373ffffffffffffffffffffffffffffffffffffffff160217905550905050600160036000828254019250508190555050505050505050505050565b60008060006139a76201518085816139a157fe5b046139fb565b8093508194508295505050509193909250565b6000620151806139cb858585613acf565b0290509392505050565b6000818311156139e457600080fd5b62015180838303816139f257fe5b04905092915050565b600080600080849050600062253d8c62010bd98301019050600062023ab18260040281613a2457fe5b059050600460038262023ab1020181613a3957fe5b0582039150600062164b0960018401610fa00281613a5357fe5b059050601f6004826105b50281613a6657fe5b058403019250600061098f8460500281613a7c57fe5b059050600060508261098f0281613a8f57fe5b0585039050600b8281613a9e57fe5b05945084600c0260028301039150848360318603606402010192508298508197508096505050505050509193909250565b60006107b2841015613ae057600080fd5b600084905060008490506000849050600062253d8c60046064600c600e870381613b0657fe5b0561132488010181613b1457fe5b0560030281613b1f57fe5b05600c80600c600e880381613b3057fe5b0502600287030361016f0281613b4257fe5b056004600c600e880381613b5257fe5b056112c08901016105b50281613b6457fe5b05617d4b8603010103039050809450505050509392505050565b6040518061014001604052806000815260200160608152602001606081526020016000815260200160608152602001600073ffffffffffffffffffffffffffffffffffffffff1681526020016000815260200160008152602001600015158152602001606081525090565b828054600181600116156101000203166002900490600052602060002090601f016020900481019282601f10613c2a57805160ff1916838001178555613c58565b82800160010185558215613c58579182015b82811115613c57578251825591602001919060010190613c3c565b5b509050613c659190613db8565b5090565b82805482825590600052602060002090601f01602090048101928215613cfe5791602002820160005b83821115613ccf57835183826101000a81548160ff0219169083151502179055509260200192600101602081600001049283019260010302613c92565b8015613cfc5782816101000a81549060ff0219169055600101602081600001049283019260010302613ccf565b505b509050613d0b9190613dd5565b5090565b604051806101000160405280600073ffffffffffffffffffffffffffffffffffffffff1681526020016060815260200160608152602001606081526020016060815260200160608152602001606081526020016000151581525090565b6040518060c001604052806000815260200160008152602001600081526020016000815260200160008152602001600073ffffffffffffffffffffffffffffffffffffffff1681525090565b5b80821115613dd1576000816000905550600101613db9565b5090565b5b80821115613df957600081816101000a81549060ff021916905550600101613dd6565b5090565b600081359050613e0c81614e44565b92915050565b600082601f830112613e2357600080fd5b8135613e36613e3182614c95565b614c68565b91508082526020830160208301858383011115613e5257600080fd5b613e5d838284614df1565b50505092915050565b600081359050613e7581614e5b565b92915050565b600060208284031215613e8d57600080fd5b6000613e9b84828501613dfd565b91505092915050565b60008060008060008060c08789031215613ebd57600080fd5b600087013567ffffffffffffffff811115613ed757600080fd5b613ee389828a01613e12565b965050602087013567ffffffffffffffff811115613f0057600080fd5b613f0c89828a01613e12565b955050604087013567ffffffffffffffff811115613f2957600080fd5b613f3589828a01613e12565b945050606087013567ffffffffffffffff811115613f5257600080fd5b613f5e89828a01613e12565b935050608087013567ffffffffffffffff811115613f7b57600080fd5b613f8789828a01613e12565b92505060a087013567ffffffffffffffff811115613fa457600080fd5b613fb089828a01613e12565b9150509295509295509295565b600080600080600060a08688031215613fd557600080fd5b600086013567ffffffffffffffff811115613fef57600080fd5b613ffb88828901613e12565b955050602086013567ffffffffffffffff81111561401857600080fd5b61402488828901613e12565b945050604061403588828901613e66565b935050606061404688828901613e66565b925050608086013567ffffffffffffffff81111561406357600080fd5b61406f88828901613e12565b9150509295509295909350565b60006020828403121561408e57600080fd5b600061409c84828501613e66565b91505092915050565b600080604083850312156140b857600080fd5b60006140c685828601613e66565b92505060206140d785828601613e66565b9150509250929050565b6000806000606084860312156140f657600080fd5b600061410486828701613e66565b935050602061411586828701613e66565b925050604061412686828701613e66565b9150509250925092565b600061413c83836142d6565b60208301905092915050565b60006141548383614558565b905092915050565b60006141688383614736565b905092915050565b61417981614d99565b82525050565b61418881614d99565b82525050565b600061419982614cf1565b6141a38185614d44565b93506141ae83614cc1565b8060005b838110156141df5781516141c68882614130565b97506141d183614d1d565b9250506001810190506141b2565b5085935050505092915050565b60006141f782614cfc565b6142018185614d55565b93508360208202850161421385614cd1565b8060005b8581101561424f57848403895281516142308582614148565b945061423b83614d2a565b925060208a01995050600181019050614217565b50829750879550505050505092915050565b600061426c82614d07565b6142768185614d66565b93508360208202850161428885614ce1565b8060005b858110156142c457848403895281516142a5858261415c565b94506142b083614d37565b925060208a0199505060018101905061428c565b50829750879550505050505092915050565b6142df81614dab565b82525050565b6142ee81614dab565b82525050565b60006142ff82614d12565b6143098185614d77565b9350614319818560208601614e00565b61432281614e33565b840191505092915050565b600061433882614d12565b6143428185614d88565b9350614352818560208601614e00565b61435b81614e33565b840191505092915050565b6000614373603783614d88565b91507f536f7272792c207468652070726f64756374206973206e6f7420617661696c6160008301527f626c6520666f722073656c6563746564206461746573210000000000000000006020830152604082019050919050565b60006143d9601b83614d88565b91507f796f7520646f6e277420686176652065646974206163636573732100000000006000830152602082019050919050565b6000614419602183614d88565b91507f536f7272792c2070726f64756374206e6f206c6f6e676572206f6e2072656e7460008301527f21000000000000000000000000000000000000000000000000000000000000006020830152604082019050919050565b600061447f601783614d88565b91507f53656e7420696e73756666696369656e742066756e64730000000000000000006000830152602082019050919050565b60006144bf603c83614d88565b91507f536f7272792c207468652070726f64756374206973206e6f7420617661696c6160008301527f626c6520696e2074686520676976656e2074696d652072616e676521000000006020830152604082019050919050565b6000614525601a83614d88565b91507f796f7520646f6e2774206861766520616e792070726f647563740000000000006000830152602082019050919050565b60006101408301600083015161457160008601826148dc565b506020830151848203602086015261458982826142f4565b915050604083015184820360408601526145a382826142f4565b91505060608301516145b860608601826148dc565b50608083015184820360808601526145d082826142f4565b91505060a08301516145e560a0860182614170565b5060c08301516145f860c08601826148dc565b5060e083015161460b60e08601826148dc565b506101008301516146206101008601826142d6565b5061012083015184820361012086015261463a828261418e565b9150508091505092915050565b60006101408301600083015161466060008601826148dc565b506020830151848203602086015261467882826142f4565b9150506040830151848203604086015261469282826142f4565b91505060608301516146a760608601826148dc565b50608083015184820360808601526146bf82826142f4565b91505060a08301516146d460a0860182614170565b5060c08301516146e760c08601826148dc565b5060e08301516146fa60e08601826148dc565b5061010083015161470f6101008601826142d6565b50610120830151848203610120860152614729828261418e565b9150508091505092915050565b60006101008301600083015161474f6000860182614170565b506020830151848203602086015261476782826142f4565b9150506040830151848203604086015261478182826142f4565b9150506060830151848203606086015261479b82826142f4565b915050608083015184820360808601526147b582826142f4565b91505060a083015184820360a08601526147cf82826142f4565b91505060c083015184820360c08601526147e982826142f4565b91505060e08301516147fe60e08601826142d6565b508091505092915050565b6000610100830160008301516148226000860182614170565b506020830151848203602086015261483a82826142f4565b9150506040830151848203604086015261485482826142f4565b9150506060830151848203606086015261486e82826142f4565b9150506080830151848203608086015261488882826142f4565b91505060a083015184820360a08601526148a282826142f4565b91505060c083015184820360c08601526148bc82826142f4565b91505060e08301516148d160e08601826142d6565b508091505092915050565b6148e581614dd7565b82525050565b6148f481614dd7565b82525050565b61490381614de1565b82525050565b600060208201905061491e600083018461417f565b92915050565b60006101008201905061493a600083018b61417f565b818103602083015261494c818a61432d565b90508181036040830152614960818961432d565b90508181036060830152614974818861432d565b90508181036080830152614988818761432d565b905081810360a083015261499c818661432d565b905081810360c08301526149b0818561432d565b90506149bf60e08301846142e5565b9998505050505050505050565b600060208201905081810360008301526149e681846141ec565b905092915050565b60006020820190508181036000830152614a088184614261565b905092915050565b6000602082019050614a2560008301846142e5565b92915050565b60006020820190508181036000830152614a4481614366565b9050919050565b60006020820190508181036000830152614a64816143cc565b9050919050565b60006020820190508181036000830152614a848161440c565b9050919050565b60006020820190508181036000830152614aa481614472565b9050919050565b60006020820190508181036000830152614ac4816144b2565b9050919050565b60006020820190508181036000830152614ae481614518565b9050919050565b60006020820190508181036000830152614b058184614647565b905092915050565b60006020820190508181036000830152614b278184614809565b905092915050565b6000602082019050614b4460008301846148eb565b92915050565b600061012082019050614b60600083018c6148eb565b8181036020830152614b72818b61432d565b90508181036040830152614b86818a61432d565b9050614b9560608301896148eb565b8181036080830152614ba7818861432d565b9050614bb660a083018761417f565b614bc360c08301866148eb565b614bd060e08301856148eb565b614bde6101008301846142e5565b9a9950505050505050505050565b600060c082019050614c0160008301896148eb565b614c0e60208301886148eb565b614c1b60408301876148eb565b614c2860608301866148eb565b614c3560808301856148eb565b614c4260a083018461417f565b979650505050505050565b6000602082019050614c6260008301846148fa565b92915050565b6000604051905081810181811067ffffffffffffffff82111715614c8b57600080fd5b8060405250919050565b600067ffffffffffffffff821115614cac57600080fd5b601f19601f8301169050602081019050919050565b6000819050602082019050919050565b6000819050602082019050919050565b6000819050602082019050919050565b600081519050919050565b600081519050919050565b600081519050919050565b600081519050919050565b6000602082019050919050565b6000602082019050919050565b6000602082019050919050565b600082825260208201905092915050565b600082825260208201905092915050565b600082825260208201905092915050565b600082825260208201905092915050565b600082825260208201905092915050565b6000614da482614db7565b9050919050565b60008115159050919050565b600073ffffffffffffffffffffffffffffffffffffffff82169050919050565b6000819050919050565b600063ffffffff82169050919050565b82818337600083830152505050565b60005b83811015614e1e578082015181840152602081019050614e03565b83811115614e2d576000848401525b50505050565b6000601f19601f8301169050919050565b614e4d81614d99565b8114614e5857600080fd5b50565b614e6481614dd7565b8114614e6f57600080fd5b5056fea264697066735822122072c56f96f6c9e970add6057c98615db33f59e22d0f370e18135e15ceb9bd94e764736f6c63430007000033",
  "immutableReferences": {},
  "source": "// SPDX-License-Identifier: MIT\n\n// DRentforcement\n// A Decentralized C2C Renting Platform\n// Contract for basic renting functions\n\npragma solidity ^0.7.0;\npragma experimental ABIEncoderV2;\n\n// importing the library\nimport './BokkyPooBahsDateTimeLibrary.sol';\n\ncontract Rentforcement {\n\n    // using the library for uint256/uint\n    using BokkyPooBahsDateTimeLibrary for uint256;\n    \n    // NOTE FOR USING TIMESTAMPS\n    // THE LIBRARY FOLLOWS ANOTHER TIMEZONE\n    // HENCE, +5.30 HRS NEEDS TO BE DONE, BEFORE PASSING TIMESTAMP\n    // ALSO, -5.30 HRS NEEDS TO BE DONE, AFTER RETREIVING TIMESTAMP\n    \n    uint256 constant TIME_PERIOD = 19800;\n\n    // dummy variable\n    uint256 dummy = 0;\n\n    // user structure\n    struct User {\n        address userAccountAddress;\n        string userName;\n        string userEmail;\n        string userPhone;\n        string userAddress;\n        string userCity;\n        string userState;\n        bool isValid;\n    }\n\n    // Product structure\n    struct Product {\n        uint256 productId;          // id of product\n        string productName;         // name of product\n        string productDesc;         // product description\n        uint256 productPrice;       // price of product per day in wei (1 ether = 10^18 wei)\n        string productImage;        // image of product\n        address productOwner;       // Owner of the product\n        uint256 productPeriod;      // number of days product is on rent\n        uint256 lastDateAvailable;  // storing the last date until which the product is available\n        bool isAvailableNow;        // Is product available now i.e. is product active\n        bool[] isNotAvailable;      // Array containing per day availability of product\n    }\n\n    // order structure\n    struct Order {\n        uint256 productId;\n        uint256 startDate;\n        uint256 endDate;\n        uint256 valuePaid;\n        uint256 valueInDeposit;\n        address user;\n    }\n\n    // ID's for product and user\n    uint256 public productId;   // global id\n    uint256 public userId;      // global id\n    uint256 public orderId;     // global id\n\n    // mapping of userid with useraddress\n    mapping(uint256 => address) public userAddress;\n\n    // mapping of address with user object\n    mapping(address => User) public users;\n\n    // mapping of productid with product object\n    mapping(uint256 => Product) public products;\n\n    // mapping of user address with product count\n    mapping(address => uint32) public userProductCount;\n\n    // mapping of order id to order object\n    mapping(uint256 => Order) public orders;\n\n    // Add emit events here\n\n    // Function to add new users\n    // INPUT PARAMS\n    // string userName;\n    // string userEmail;\n    // string userPhone;\n    // string userAddress;\n    // string userCity;\n    // string userState;\n\n    function createNewUser(\n        string memory _userName,\n        string memory _userEmail,\n        string memory _userPhone,\n        string memory _userAddress,\n        string memory _userCity,\n        string memory _userState\n    ) public returns (bool) {\n\n        // creating an object\n        User memory _user = User(\n            msg.sender,\n            _userName,\n            _userEmail,\n            _userPhone,\n            _userAddress,\n            _userCity,\n            _userState,\n            true\n        );\n\n        // saving to mapping\n        userAddress[userId] = msg.sender;\n        users[msg.sender] = _user;\n\n        // emit event here\n\n        // increment the user count\n        userId += 1;\n        return true;\n\n    }\n\n    // modifier for checking user validity\n    modifier isUserValid(address userAdd) {\n        require(users[userAdd].isValid);\n        _;\n    }\n\n    // Function for updating user\n    // INPUT Params: updated user fields\n    function updateUser(\n        string memory _userName,\n        string memory _userEmail,\n        string memory _userPhone,\n        string memory _userAddress,\n        string memory _userCity,\n        string memory _userState\n    ) external isUserValid(msg.sender) returns (bool) {\n\n        address sender = msg.sender;\n        require(\n            users[sender].userAccountAddress == sender,\n            \"you don't have edit access!\"\n        );\n\n        users[msg.sender].userName = _userName;\n        users[msg.sender].userEmail = _userEmail;\n        users[msg.sender].userPhone = _userPhone;\n        users[msg.sender].userAddress = _userAddress;\n        users[msg.sender].userCity = _userCity;\n        users[msg.sender].userState = _userState;\n\n        return true;\n    }\n\n    // Function for adding product on rent\n    // INPUT PARAMS\n    // _productName: Name of product\n    // _productDesc: Description of product\n    // _numberOfDays: Number of days, product is available on rent\n    // _perDayPrice: Per day price of product\n    function addProductOnRent(\n        string memory _productName,\n        string memory _productDesc,\n        uint256 _numberOfDays,\n        uint256 _perDayPrice,\n        string memory _productImage\n    ) public returns (bool) {\n\n        // setting the startdate\n        (uint256 year, uint256 month, uint256 day) = BokkyPooBahsDateTimeLibrary.timestampToDate(block.timestamp + TIME_PERIOD);\n        uint256 startDate = BokkyPooBahsDateTimeLibrary.timestampFromDate(year, month, day);\n        startDate = startDate - TIME_PERIOD;\n\n        // calculating the enddate\n        uint256 endDate = uint256(startDate + _numberOfDays * 1 days) - 1;\n\n        // creating a object of product in memory\n        Product memory product = Product(\n            productId,\n            _productName,\n            _productDesc,\n            _perDayPrice,\n            _productImage,\n            msg.sender,\n            _numberOfDays,\n            endDate,\n            true,\n            new bool[](_numberOfDays)\n        );\n\n        // add object to permanant storage\n        products[productId] = product;\n\n        // increment count to product count mapping\n        userProductCount[msg.sender] += 1;\n\n        // emit event here\n\n        // Incrementing the product ID\n        productId += 1;\n        return true;\n\n    }\n\n    // Modifier to check whether product on rent is active or not\n    modifier isProductActive(bool _isAvailableNow) {\n        require(_isAvailableNow);\n        _;\n    }\n\n    // Another Modifier to check whether product has expired or not\n\n    // Function to edit product on rent\n    // Can only be done by Owner\n    // Uses modifier isProductActive\n    // INPUT PARAMS\n    // _id: The ID of product\n    // _updatedName: Updated name of product\n    // _updatedDesc: Updated description of product\n    // _updatedNumberOfDays: Updated number of days, product is available on rent\n    // _updatedPerDayPrice: Updated Per day price of product\n\n/*\n    function editProductOnRent(\n        uint256 _id,\n        string memory _updatedName,\n        string memory _updatedDesc,\n        uint256 _updatedNumberOfDays,\n        uint256 _updatedPerDayPrice,\n        string memory _updatedProductImage\n    ) external isProductActive(products[_id].isAvailableNow) returns (bool) {\n\n        // Assert that property is only edited by owner and not by any external contract\n        require(\n            products[_id].productOwner == msg.sender,\n            \"you don't have edit access\"\n        );\n\n        // setting the startdate\n        (uint256 year, uint256 month, uint256 day) = BokkyPooBahsDateTimeLibrary.timestampToDate(block.timestamp);\n        uint256 startDate = BokkyPooBahsDateTimeLibrary.timestampFromDate(year, month, day);\n\n        // calculating the enddate\n        uint256 endDate = uint256(startDate + _updatedNumberOfDays * 1 days);\n\n        // Assert that number of days are not reduced\n        require(\n            endDate < products[_id].lastDateAvailable,\n            \"sorry, you can't decrease the available days on rent\"\n        );\n\n        // Make new memory array for storing\n        bool[] memory newIsAvailable = new bool[](_updatedNumberOfDays);\n        for (uint256 i = 0; i < products[_id].isAvailable.length; i++) {\n            newIsAvailable[i] = products[_id].isAvailable[i];\n        }\n\n        // update product instance\n        products[_id].productName = _updatedName;\n        products[_id].productDesc = _updatedDesc;\n        products[_id].productPrice = _updatedPerDayPrice;\n        products[_id].productImage = _updatedProductImage;\n        products[_id].productPeriod = _updatedNumberOfDays;\n        products[_id].lastDateAvailable = endDate;\n        products[_id].isAvailable = newIsAvailable;\n        return true;\n    }*/\n\n    // Function to borrow product here\n    // checks availability of product for given dates\n    function checkAvailability(uint256 _id, uint256 startDate, uint256 numberOfDays) public view returns(bool) {\n\n        // check whether current time is greater than last date available\n        require(\n            block.timestamp <= products[_id].lastDateAvailable,\n            'Sorry, product no longer on rent!'\n        );\n\n        // calculate the enddate\n        // start date in form of timestamp for beginning of day!\n        uint256 endDate = uint256(startDate + numberOfDays * 1 days);\n\n        // check whether enddate is greater than the last product available date\n        require(\n            endDate <= products[_id].lastDateAvailable,\n            'Sorry, the product is not available in the given time range!'\n        );\n\n        // get start index for array!\n        uint256 startIndex = getRentIndex(_id, startDate);\n\n        // checking the boolean array\n        for (uint256 i = startIndex; i < (startIndex + numberOfDays); i++) {\n            \n            // check if value is true or not\n            if (products[_id].isNotAvailable[i] == true) {\n                revert('Sorry, the product is not available for selected dates!');\n            }\n\n        }\n\n        // if reached here, product is available\n        return true;\n\n    }\n\n    function getRentIndex(uint256 _id, uint256 startDate) public view returns(uint256) {\n        uint256 productStartDate = products[_id].lastDateAvailable + 1 - products[_id].productPeriod * 1 days;\n        uint256 startIndex = BokkyPooBahsDateTimeLibrary.diffDays(productStartDate, startDate);\n        return startIndex;\n    }\n    \n    /*\n    function dummyFunction() public pure returns(uint) {\n        // uint256 productStartDate = products[_id].lastDateAvailable + 1 - products[_id].productPeriod * 1 days;\n        uint256 productStartDate = BokkyPooBahsDateTimeLibrary.timestampFromDate(2020, 9, 11);\n        // (uint year, uint month, uint day, uint hour, uint minute, uint second) = BokkyPooBahsDateTimeLibrary.timestampToDateTime(productStartDate);\n        // return (year, month, day, hour, minute, second);\n        return productStartDate;\n    }*/\n    // 1599683400\n    /*\n    function dummyFunction1() public pure returns(uint, uint, uint, uint, uint, uint) {\n        (uint year, uint month, uint day, uint h, uint m, uint s) = BokkyPooBahsDateTimeLibrary.timestampToDateTime(1599683400 + 19800);\n        return (year, month, day, h, m, s);\n    }*/\n    \n    function makePayment(address beneficiary, uint256 value) internal {\n        // make payment\n        // address dummybeneficiary = beneficiary;\n        // dummybeneficiary = 0xED0E32B5E67F2785F90b70c42296Ee89d5f39160;\n        address(uint160(beneficiary)).transfer(value);\n    }\n\n    function placeOrder(uint256 _productId, uint256 startDate, uint256 numberOfDays) public payable returns(bool) {\n\n        uint256 price = products[_productId].productPrice * numberOfDays;\n\n        // add deposit amt here!\n        uint256 depositAmount = 0;\n\n        require(\n            msg.value == price,\n            'Sent insufficient funds'\n        );\n\n        // transfer funds\n        makePayment(products[_productId].productOwner, price);\n\n        // all conditions fulfilled and funds transferred!\n        // create new order\n\n        createOrder(_productId, msg.sender, price, depositAmount, startDate, numberOfDays);\n        return true;\n\n    }\n\n    function createOrder(uint256 _productId, address user, uint256 price, uint256 deposit, uint256 startDate, uint256 numberOfDays) internal {\n\n        // get the product instance\n        Product storage product = products[_productId];\n\n        // change the boolean array for the booking!\n        uint256 startIndex = getRentIndex(_productId, startDate);\n        for (uint256 i = startIndex; i < (startIndex + numberOfDays); i++) {\n            product.isNotAvailable[i] = true;\n        }\n\n        // calculate the timestamp for endDate (for Order instance)\n        uint256 endDate = startDate + (numberOfDays * 1 days) - 1;\n\n        // creating the order object\n        Order memory currentOrder = Order(\n            _productId,\n            startDate,\n            endDate,\n            price,\n            deposit,\n            user\n        );\n\n        // storing to permanant storage\n        orders[orderId] = currentOrder;\n\n        // emit event here\n\n        // increment the count\n        orderId += 1;\n\n    }\n\n    // Function to fetch all products here\n    // Used in dashboard\n    // Checks whether product is active or not\n    function fetchAllProducts() external view returns (Product[] memory) {\n\n        // Declaring a new array in memory (nothing is stored in storage)\n        // No gas used for external view function\n        Product[] memory allProducts = new Product[](productId);\n        uint256 counter = 0;\n\n        // iterating over the product mapping\n        for (uint256 i = 0; i < productId; i++) {\n            // Only add those products which are available\n            if (products[i].isAvailableNow == true) {\n                // adding the specific product to array\n                allProducts[counter] = products[i];\n                counter += 1;\n            }\n        }\n\n        return allProducts;\n    }\n\n    // Function to fetch owned products\n    // Used in dashboard\n    // Returns products which are owned by user calling the function\n    function fetchMyProducts() external view returns (Product[] memory) {\n        require(userProductCount[msg.sender] > 0, \"you don't have any product\");\n\n        // Declaring a new array in memory (nothing is stored in storage)\n        // No gas used for external view function\n        Product[] memory myProducts = new Product[](\n            userProductCount[msg.sender]\n        );\n        uint256 counter = 0;\n\n        // iterating over the product mapping\n        for (uint256 i = 0; i < productId; i++) {\n            // checking owner\n            if (products[i].productOwner == msg.sender) {\n                // adding the specific product to array\n                myProducts[counter] = products[i];\n                counter += 1;\n            }\n        }\n\n        return myProducts;\n    }\n\n    // function to fetch complementary products (all others except users')\n    function fetchRemainingProducts() external view returns (Product[] memory) {\n\n        // declare an array for remaining products\n        // size = all products - user's products\n        uint256 ownProductsCount = userProductCount[msg.sender];\n        Product[] memory remainingProducts = new Product[](productId - ownProductsCount);\n\n        uint256 counter = 0;\n\n        // iterating over the product mapping\n        for (uint256 i = 0; i < productId; i++) {\n            // Only add those products which are not owned by user\n            if (products[i].productOwner != msg.sender) {\n                remainingProducts[counter] = products[i];\n                counter += 1;\n            }\n        }\n\n        return remainingProducts;\n\n    }\n\n    function fetchProductFromId(uint256 _id) public view returns(Product memory) {\n        return products[_id];\n    }\n\n    // function to check whether user exists or not\n    function checkIfUserExists() external view returns (bool) {\n        return users[msg.sender].isValid;\n        // if (keccak256(abi.encodePacked(users[msg.sender].userName)) == keccak256(abi.encodePacked(\"\")))\n    }\n\n    // fetch all users\n    function fetchAllUsers() external view returns (User[] memory) {\n        User[] memory allUsers = new User[](userId);\n        uint256 counter = 0;\n\n        for (uint256 i = 0; i < userId; i++) {\n            allUsers[counter] = users[userAddress[i]];\n            counter += 1;\n        }\n        return allUsers;\n    }\n\n    // fetch a particular user profile\n    function fetchUserProfle() external view returns (User memory) {\n        return users[msg.sender];\n    }\n\n    // fetch a particular user profile\n    function fetchOwnerOfProduct(uint256 _productId) external view returns(User memory) {\n        return users[products[_productId].productOwner];\n    }\n\n    // dummy functions for testing!\n    function getDummy() external view returns (uint256) {\n        return dummy;\n    }\n\n    function setDummy(uint256 x) external {\n        dummy = x;\n    }\n}\n",
  "sourcePath": "/home/naimish/Desktop/Projects/WebD/drentforcement/contracts/Rentforcement.sol",
  "compiler": {
    "name": "solc",
    "version": "0.7.0+commit.9e61f92b.Emscripten.clang"
  },
  "schemaVersion": "3.3.4",
  "updatedAt": "2021-03-09T16:27:16.233Z",
  "networkType": "ethereum",
  "devdoc": {
    "kind": "dev",
    "methods": {},
    "version": 1
  },
  "userdoc": {
    "kind": "user",
    "methods": {},
    "version": 1
  }
}